:1000000068C318951895189518951895189518950A
:10001000E1C2189549C27AC2ABC2189518951895D5
:100020001895189518951895189518951895189568
:100030001895189568D3980180E090E0A0E0B0E0B2
:10004000890145E050E053D3A80160E070E08417D7
:100050009507A607B70734F400008F5F9F4FAF4F97
:10006000BF4FEECFE4E058C34AD3280180E090E0D0
:10007000A0E0B0E06624772484159505A605B705B1
:1000800044F409E310E0D6DF8F5F9F4FAF4FBF4FBF
:10009000F1CFE8E03DC338D3C801A22F3A2F28EDB5
:1000A0008C01FAD1E3E039C308E00093250402E0B3
:1000B00000932604089502E00093250408E00093CD
:1000C0002604089522D3902F80E0891750F4F8D2A7
:1000D00004E610E0C9DFF8D208EC10E0C5DF839534
:1000E000F4CFE2E01BC38A93802F882339F000E726
:1000F0000093410AD9DF02E0E5DF06C000E5009386
:10010000410AD9DF01E0DEDF8991089520E000E5B2
:1001100010E0C1DF00E0089520E008E710E0BBDF59
:1001200020E000E710E0B7DF21E001E610E0B3DFF8
:1001300020E000E610E0AFDF20E002E610E0ABDFF9
:1001400000E0089520E000E810E0A5DF00E0009363
:10015000890000E00093880000E0089500EF00931C
:1001600000040EE00093200400E00093040400E08B
:100170000093240400E00093100408E000931104AD
:1001800008E00093120408E00093130400E00093D9
:10019000140408E00093150404E00093160400E042
:1001A0000093170408E00093300400E0009331044A
:1001B00000E00093320400E00093330400E0009379
:1001C000000200E00093010200E00093020200E060
:1001D00000930302B7DFA0DF99DF0BE000938201F9
:1001E0000AE00093830100E00093920100E0009395
:1001F000930103E00093940103E00093950104E070
:100200000093960104E00093970100E000939801A9
:1002100000E00093990100E000939A0100E0009350
:100220009B0100E000939C0100E000938A0100E044
:100230000093A20100E00093A301ECE4FAE00EE0D9
:1002400010E000831183EAE4FAE000E010E00083AC
:10025000118300E70093410A01E00093480A00E09F
:100260000093440A00E00093450A00E00093460A28
:1002700000E00093490A03E40093400A00E0009381
:10028000C1010AEC0093C80107E00093C70103E431
:100290000093C6010CEA0093CC0107E00093CB0168
:1002A00003E40093CA0109E00093C50109E000934B
:1002B000C90101E00093C001BFD1E8E0F4E0008192
:1002C00003FF07C000E00093883F01E00093953FE3
:1002D00006C001E00093883F00E00093953F009145
:1002E000883F01DF01E010E0BFDEE8E0F4E00081DC
:1002F00003FF04C001E00093943F03C000E00093BB
:10030000943F0091943F1091953F0117E1F00091C7
:10031000933F03950093933F0091933F0E31B1F4C7
:100320000091943F0093953F0091943F002321F06A
:1003300000E00093883F03C001E00093883F0091F4
:10034000883FD1DE03C000E00093933FE8E0F4E093
:10035000008102FD38C0EEE8FFE3008111812281B7
:100360003381083B4BE0140740E0240740E03407AA
:1003700078F4EEE8FFE300811181228133810F5F81
:100380001F4F2F4F3F4F008311832283338310C0B1
:100390000091893F002361F40091883F1FEF0127FE
:1003A0000093883F01E00093893F0091883F9BDEE6
:1003B000EAE8FFE300E0008300E0018300E002835D
:1003C00000E003833EC0EEE8FFE30081118122815B
:1003D0003381083B4BE0140740E0240740E034073A
:1003E00018F5EEE8FFE300811181228133810333A8
:1003F00040E0140740E0240740E03407A8F00091F3
:10040000923F03950093923F0091923F033061F435
:1004100000E00093923F0091883F1FEF0127009377
:10042000883F0091883F5FDEEEE8FFE300E0008355
:1004300000E0018300E0028300E0038300E000931A
:10044000893FEAE8FFE30081118122813381083886
:1004500043E1140740E0240740E0340778F4EAE879
:10046000FFE300811181228133810F5F1F4F2F4FE6
:100470003F4F008311832283338334CF00E0009306
:10048000923FEEE8FFE300E0008300E0018300E03C
:10049000028300E0038326CFF80124BF3083089550
:1004A00008950895089508958A93FA93EA933A92E5
:1004B0002A921A920A927A936A935A934A933A9397
:1004C0002A931A930A938FB72091803F3091813FEE
:1004D00000E010E02017310729F0E091803FF09113
:1004E000813F099500E100930B0A8FBF0991199193
:1004F000299139914991599169917991099019906E
:1005000029903990E991F991899118958A93FA93F4
:10051000EA933A922A921A920A927A936A935A9397
:100520004A933A932A931A930A938FB72091823F62
:100530003091833F00E010E02017310729F0E0916F
:10054000823FF091833F099500E200930B0A8FBF31
:10055000099119912991399149915991699179910B
:100560000990199029903990E991F99189911895FC
:100570008A93FA93EA933A922A921A920A927A9377
:100580006A935A934A933A932A931A930A938FB78A
:100590002091843F3091853F00E010E02017310723
:1005A00029F0E091843FF091853F099500E40093A4
:1005B0000B0A8FBF0991199129913991499159914C
:1005C000699179910990199029903990E991F9915F
:1005D000899118958A93FA93EA933A922A921A92F9
:1005E0000A927A936A935A934A933A932A931A9364
:1005F0000A938FB72091863F3091873F00E010E04B
:100600002017310729F0E091863FF091873F099547
:1006100001E000930B0A8FBF09911991299139913B
:10062000499159916991799109901990299039903E
:10063000E991F99189911895E8E2FAE000E619E06C
:1006400000831183EAE2FAE000E619E000831183F7
:10065000ECE2FAE000E619E000831183E0E2FAE060
:1006600000E010E00083118301E40093010A00E040
:100670000093020A00E00093030A00E00093040ADA
:1006800000E00093050A00E00093060A00E00093F2
:10069000070A00E000930E0A00E00093090A00E058
:1006A00000930A0A00E000930B0AE6E2FAE00FE288
:1006B00015E70083118300E000930F0A00E008951E
:1006C00001E00093000A089500E00093000A0895F5
:1006D00054C005EB0DBF0FE30EBFC6EDDFE325D021
:1006E000002309F030D03ADD01D0F2CFF1CF149FD2
:1006F000102D059F100D049F002D110D08957A9265
:100700006A925A924A92BA93AA939A938A930895B4
:100710007F806E805D804C80BB81AA8199818881B9
:10072000F0E0EC0FFD1FEF01089501E0089520E0D7
:100730002D9301501040E1F7089525912D9301501C
:100740001040D9F708958CE797E0FC0105911491CA
:10075000FC013296A591B491FC0134962591349117
:10076000422F432B19F0F901E8DF01C0E0DF0696C4
:1007700017E08838910748F30895FFCF0E00883FAF
:1007800000000800803F88075002510252025302C5
:0006D20127
:00000001FF
